:020000040800F2
:10000000A8120020A1010008331E0008851700086F
:10001000311E0008C9020008812800080000000005
:100020000000000000000000000000002D2100087A
:10003000CB02000800000000C51F00082F210008A7
:10004000BB010008BB010008BB010008BB010008A0
:10005000BB010008BB010008BB010008BB01000890
:10006000BB010008BB010008BB010008BB01000880
:10007000BB010008BB010008BB010008BB01000870
:10008000BB010008BB010008BB010008BB01000860
:10009000BB010008BB010008BB010008BB01000850
:1000A000BB010008BB010008BB010008BB01000840
:1000B000BB010008BB010008BB010008BB01000830
:1000C000BB010008BB010008BB010008BB01000820
:1000D000BB01000875280008BB010008BB0100082F
:1000E000BB010008BB010008BB010008BB01000800
:1000F000BB010008BB010008BB010008BB010008F0
:10010000BB010008BB010008BB010008BB010008DF
:10011000BB010008BB010008BB010008BB010008CF
:10012000BB010008BB010008BB010008BB010008BF
:10013000BB010008BB010008BB010008BB010008AF
:10014000BB010008BB010008BB010008BB0100089F
:10015000BB010008BB010008BB010008BB0100088F
:10016000BB010008BB010008BB010008BB0100087F
:10017000BB010008BB010008BB0100080000000033
:10018000BB010008BB010008DFF810D000F08AF8BE
:1001900000480047F92B0008AFF30080A8120020A8
:1001A0000648804706480047FEE7FEE7FEE7FEE711
:1001B000FEE7FEE7FEE7FEE7FEE7FEE7CD210008EB
:1001C000890100082DE9F05F0546002092469B4614
:1001D00088460646814640241BE02846414647465D
:1001E000224600F04FF853465A46C01A914110D3A8
:1001F00011461846224600F036F82D1A67EB010822
:100200004F4622460120002100F02DF817EB00098F
:100210004E41201EA4F10104DFDC484631462A4647
:100220004346BDE8F09FD2B201E000F8012B491E21
:10023000FBD270470022F6E710B513460A46044683
:100240001946FFF7F0FF204610BD10B5002200E070
:10025000521C835C8C5CA34201D1002BF8D1D8B234
:10026000E1B2401A10BD202A04DB203A00FA02F164
:10027000002070479140C2F1200320FA03F3194394
:1002800090407047202A04DB203A21FA02F0002136
:10029000704721FA02F3D040C2F120029140084396
:1002A00019467047064C074D06E0E06840F0010330
:1002B00094E8070098471034AC42F6D3FFF768FF84
:1002C000302D0008502D0008FEE7704772B6FEE79B
:1002D00030B5B3F5804F05D06FF0704140F8221073
:1002E000002030BD8C690B688D6823434C68898978
:1002F000240144EA0524234343EA014150F8223013
:10030000014C23401943E9E70000F0CF10B50A681B
:1003100050F8223023F0010340F822308C68082C7A
:1003200023D000234A682243CC681C430B69224334
:100330001A434B690E4C1A43CB691A430B6A1A4392
:100340004B6A1A438B6A1A43CB6A1A430B6B1A43E4
:100350008B691343CA6B09681A4350F82130A343D1
:10036000134340F82130002010BD4023DAE700009D
:100370007FFF0F0030B5D1E9003443EA04138C68E5
:100380008D89240244EA054423430C8A094D00EB7D
:10039000820005EB045423430C7D6D0105EB0464DE
:1003A000896923430B43416801F040410B4343609B
:1003B000002030BD0000F0FF2DE9F0410446876DBC
:1003C00000F0C6F9064694F835000025022806D04C
:1003D0008020606584F834500120BDE8F0812068F9
:1003E000016821F0160101602068416921F0800157
:1003F0004161206C08B9A06C20B12068016821F02F
:10040000080101602068016821F0010101600CE031
:1004100000F09EF9801B052807D920206065032085
:1004200084F8350084F83450D7E720680068C007A6
:10043000EED194F85C103F208840B860012084F829
:10044000350084F834500020C7E790F835100229B1
:1004500003D08021416501207047052180F83510C7
:100460000068016821F00101016000207047000070
:1004700070B5044600F06CF90546601C02D00448D3
:100480000078044400F064F9401BA042FAD370BD28
:10049000480000202DE9F04186B014216846FFF79E
:1004A000C9FE20480168002939D1012101601E4898
:1004B0000024016841F00101016000684FF4805898
:1004C00000F001000C27CDF80080CDE90470032670
:1004D00002250396CDE901546946144800F02EF830
:1004E0004FF68070CDE9000502AA694682E8D00087
:1004F0000F4800F023F84CF23370CDE9000502AA52
:10050000694682E8D0000B4800F018F802AA694654
:1005100082E8D000CDE90085074800F00FF806B06A
:10052000BDE8F0813C000020383802400014024051
:1005300000100240000C0240001802402DE9F84F64
:10054000DFF8BCA10022012503264FF00F090AF1B4
:10055000040BAAF1040E00BF0B6805FA02F4234055
:10056000A34270D10F7907F00307012F01D0022FAA
:1005700016D187684FEA420806FA08FC27EA0C07FA
:10058000D1F80CC00CFA08FC4CEA070CC0F808C003
:100590004768A7430C79C4F3001494403C4344607B
:1005A0000C79E443A4070AD0C4684FEA420C06FA67
:1005B0000CF7BC438F6807FA0CF72743C7600C7928
:1005C00004F00304022C12D1D40800EB840CDCF8F4
:1005D00020405707FF0E09FA07F824EA0804D1F86B
:1005E000108008FA07F848EA0408CCF8208004686C
:1005F0004FEA420C06FA0CF7BC430F7907F00307E9
:1006000007FA0CF7274307604C6814F4403F70D09A
:100610003C4C276847F480472760246822F0030792
:1006200004F480440094384C07EB040CDCF80848D0
:1006300097074FEA177809FA08F7BC43334FB842D7
:1006400002D1002724E054E0314FB84201D1012704
:100650001EE0304FB84201D1022719E02E4FB842B8
:1006600001D1032714E02D4FB84201D104270FE038
:100670002B4FB84201D105270AE02A4FB84201D1D9
:10068000062705E0284FB84201D1072700E00827D8
:1006900007FA08F72743CCF80878DAF800405746FD
:1006A000D1F804C09C435FEACC2C00D51C433C60CD
:1006B000DBF800405F46D1F804C09C435FEA8C2C15
:1006C00000D51C433C60DEF800407746D1F804C0FA
:1006D0009C435FEA8C3C00D51C433C60084F083FBC
:1006E0003C68D1F804C09C435FEACC3C00D51C4375
:1006F0003C60521C102AFFF42FAFBDE8F88F0000B9
:10070000083C0140443802400030014000000240F3
:100710000004024000080240000C024000100240A9
:100720000014024000180240001C0240006908400A
:1007300000D001207047426921EA02030A4043EADF
:100740000241816170470AB1816170470904FBE78A
:100750000148806870470000480000200248816816
:100760000278114481607047480000200B4810B5A2
:10077000016841F400710160016841F48061016029
:10078000016841F480710160032000F06FF80F20D0
:1007900000F006F800F024F8002010BD003C0240F4
:1007A00070B50D4D04464FF47A712878B1FBF0F026
:1007B0000A490968B1FBF0F000F0BDFC48B9102C03
:1007C00007D200222146501E00F030F800206C6055
:1007D00070BD012070BD00004800002054000020C2
:1007E0000A4808B5016841F480410160006800F4DE
:1007F000804000900548001F016841F08051016071
:10080000006800F08050009008BD000044380240AD
:10081000002809DB00F01F020121914040098000FF
:1008200000F1E020C0F8001170470000F0B40E4B5A
:100830001B680C46C3F30223C3F10705042D00D93E
:100840000425191D072901D2002300E0DB1E012623
:1008500006FA05F1491E214099409E40761E164039
:100860003143F0BC02F01EB80CED00E0064900F088
:10087000070208684FF6FF03184040EA0220034AC7
:1008800010430860704700000CED00E00000FA051E
:100890002DE9F0470E46050065D0DFF81481D8F841
:1008A0000000F7B200F00700B04207D288F80070ED
:1008B000D8F8000000F00700B04254D128683D4C41
:1008C000810712D5400703D5206840F4E05020602E
:1008D0002878000703D5206840F460402060206835
:1008E000A96820F0F000084320602878C0072DD0C8
:1008F000304968680839012812D0022813D003282B
:1009000011D00968890700292DDA216821F0030137
:1009100001432160FFF71CFF814641F2883A0EE057
:1009200009688903EFE709688901ECE7FFF710FF21
:10093000A0EB0901514502D90320BDE8F0872068EA
:10094000696800F00C00B0EB810FEFD1D8F800100F
:10095000404601F00701B14207D90770006800F076
:100960000700B04201D00120E7E72878400705D50D
:100970002068E96820F4E0500843206028780007E8
:1009800006D52068296920F4604040EAC100206053
:1009900000F038F82168084AC1F30311515CC840DF
:1009A0000649086006480068FFF7FAFE0020C4E721
:1009B000003C024008380240182D00085400002076
:1009C0004C0000200448054900680968044AC1F346
:1009D0008221515CC8407047540000200838024012
:1009E000282D00080448054900680968044AC1F335
:1009F0004231515CC8407047540000200838024022
:100A0000282D0008154810B5006810F00C02144895
:100A100013D04110042A0FD0082A0ED10F4C241FE6
:100A20002268236802F03F025B0207D52068C0F30A
:100A30008810A0FB010106E0084610BD2168C1F343
:100A40008811A1FB00010023FFF7BCFB2168C1F363
:100A50000141491C4900B0FBF1F010BD08380240CB
:100A60000024F4002DE9F84F04006ED02078DFF860
:100A70004C93C007A9F104054AD009F104000168AC
:100A8000C1F38101012908D00068C0F38100022868
:100A90000AD1D9F80000400206D52868800337D56E
:100AA00060680028E1D033E06068B0F5803F10D086
:100AB000B0F5A02F286810D020F480302860286876
:100AC00020F4802028606068A8B1FFF741FE064648
:100AD0000DE0286840F48030F4E740F4802028607E
:100AE000F7E700BFFFF734FE801B642873D828683F
:100AF0008003F7D50CE0FFF72BFE064605E000BFAC
:100B0000FFF726FE801B6428F0D828688003F7D4FE
:100B10002078DFF8AC8280074FF0000A3ED5A74866
:100B2000001D016811F00C0F08D00068C0F38100AF
:100B300002280BD1D9F80000400207D428688007AA
:100B400016D5E068012800D112E033E1E068B8B1C1
:100B50000120C8F80000FFF7FBFD064605E000BFD6
:100B6000FFF7F6FD801B0228C0D828688007F7D55C
:100B70002868216920F0F80040EAC10028600DE0F3
:100B8000C8F800A0FFF7E4FD064604E0FFF7E0FD2B
:100B9000801B02281FD828688007F7D42078000718
:100BA00022D5864F87486169703771B10121016094
:100BB000FFF7CEFD064604E0FFF7CAFD801B0228C2
:100BC00009D838688007F7D50EE0C0F800A0FFF715
:100BD000BFFD064605E082E0FFF7BAFD801B022854
:100BE0007DD838688007F7D42078400768D5DFF8CB
:100BF000CCB100270BF13C0BDBF80000C0000BD49C
:100C0000DBF8001041F08051CBF80010DBF8000059
:100C1000012700F0805000906B4E3068C00510D462
:100C2000306840F480703060FFF792FD009005E07E
:100C3000FFF78EFD0099401A022850D83068C00591
:100C4000F6D55E4EA0686C3601280FD005283068B6
:100C500010D020F001003060306820F004003060D7
:100C6000A068B8B1FFF774FD00900FE0306840F065
:100C70000100F4E740F004003060F7E7FFF768FD9B
:100C80000099411A41F28830814266D83068800765
:100C9000F4D50EE0FFF75CFD009007E0FFF758FD8C
:100CA0000099411A41F28830814256D83068800755
:100CB000F4D42FB1DBF8001021F08051CBF80010F4
:100CC000A069C8B33D49091D0968C1F38101022922
:100CD0004AD00228504607D0C8F8600000E03CE047
:100CE000FFF736FD04463BE04746C8F86000FFF7D3
:100CF0002FFD064605E000BFFFF72AFD801B0228F6
:100D00002BD828688001F7D4D4E907010843A16AE9
:100D10002E4A490802EB0141626A41EA8211084306
:100D200094F82C1040EA0161C9F8001001203866DF
:100D3000FFF70EFD044606E03EE000BFFFF708FDAA
:100D4000001B022809D828688001F7D534E000BFCD
:100D5000FFF7FEFC001B022802D90320BDE8F88F34
:100D600028688001F4D427E00128F7D0D9F80000E2
:100D7000E26900F4800191421CD1226A00F03F0137
:100D8000914217D147F6C071626A0140B1EB821FF0
:100D900010D1A26A4FF0FF3300F4403103EB52024E
:100DA000B1EB024F06D194F82C1000F07060B0EB5C
:100DB000016F01D00120D1E70020CFE704380240C5
:100DC00000004742800E4742007000400000FFFFD5
:100DD00070B5040009D0606A002540B125616561E5
:100DE000A56294F8510040B10CE0012070BD60682C
:100DF000B0F5827FF4D0E561F2E784F850502046E8
:100E000000F044F8022084F851002068016821F0C5
:100E100040010160A088218900F4827001F404413E
:100E20000843A18901F400610843217C01F002011B
:100E30000843217D01F001010843218B01F4007179
:100E40000843217F01F03801084394F8201001F095
:100E500080010843218D01F4005108432168086096
:100E6000A069042101EA104094F8241001F0100157
:100E70000843216848602068C16921F40061C161AC
:100E80006565012084F85100002070BD10B586B062
:100E9000044614216846FFF7CDF9134920688842BB
:100EA00020D112480021026842F48052026000689A
:100EB00000F4805005900D481438026842F0020298
:100EC0000260006800F002000590382000900220C7
:100ED000CDE90101032003900520049069460448F0
:100EE000FFF72CFB06B010BD003001404438024033
:100EF000000402402DE9F84F044690F85000002706
:100F00000A9E1D4692468B464FF0010901280ED0DD
:100F1000012084F85000FFF71BFC804694F8510034
:100F2000616801280CD0B1F5827F07D102E0022070
:100F3000BDE8F88FA16809B9042801D00227C2E0F2
:100F4000BBF1000F27D0BAF1000F24D01DB394F8E5
:100F50005100042802D0052084F85100002060656B
:100F6000C4F838A0E587A587C4F830B0E586A58623
:100F70002064606420680168490603D4016841F078
:100F800040010160E068B0F5006F606805D0E8B32B
:100F9000012D46D07FE0012795E008B1012D39D120
:100FA000206B21680088C860206B801C2063E08E65
:100FB000401EE0862EE02068816889070FD5E18E0B
:100FC00069B1B9F1010F0AD1216B0988C160206BA9
:100FD000801C2063E08E401EE0864FF000092068F0
:100FE0008168C9070CD0E18F51B1C068A16B08803E
:100FF000A06B801CA063E08F401EE0874FF00109CA
:10100000FFF7A6FBA0EB0800B04200E009E001D327
:10101000701C50D1E08E0028CDD1E08F0028CAD1BD
:101020003FE0206B216800780873206B401C206330
:10103000E08E401EE0862EE02068816889070FD58B
:10104000E18E69B1B9F1010F0AD1216B0978017301
:10105000206B401C2063E08E401EE0864FF00009AC
:1010600020688168C9070CD0E18F51B1C068A16BBD
:101070000870A06B401CA063E08F401EE0874FF01B
:101080000109FFF765FBA0EB0800B04202D3701C1A
:1010900001D010E07EB1E08E0028CDD1E08F002895
:1010A000CAD142463146204600F0A8FF28B10127A8
:1010B0002020606507E0032705E0A06818B92068D4
:1010C000C16880680090012084F85100002084F8F5
:1010D000500038462CE770B515460E46040003D084
:1010E00094F8490010B107E0012070BD002084F899
:1010F0004800204600F01DF804F108012068FFF7C1
:1011000005F93146A2682068FFF734F9D4E90102F5
:101110002946236BFFF7DCF82168A06851F82020EE
:1011200042F0010241F82020012084F8490000200B
:1011300070BDFFF7AFB910B5401EB0F1807F01D38D
:10114000012010BD4FF0E02460610F21601701F015
:10115000A9FB0020A06107202061002010BD000035
:1011600070B590F83C20012A32D0012480F83C4030
:10117000022280F83D2003685A689D6822F07006BC
:101180000A6832435A60134B02689A4214D0B2F193
:10119000804F11D0104B9A420ED0104B9A420BD078
:1011A0000F4B9A4208D00F4B9A4205D00E4B9A42F1
:1011B00002D00E4B9A4204D1496825F080031943AE
:1011C000916080F83D40002180F83C10084670BDD9
:1011D000022070BD000001400004004000080040F3
:1011E000000C004000040140004001400018004095
:1011F00010B5040003D094F83D0010B107E00120C1
:1012000010BD002084F83C00204600F01FF80220AA
:1012100084F83D00211D206800F0E0FF012084F8E3
:10122000460084F83E0084F83F0084F8400084F8CB
:10123000410084F8420084F8430084F8440084F8B4
:10124000450084F83D00002010BD000008B500688E
:101250000649884208D10648016841F01001016042
:10126000006800F01000009008BD00000010004071
:101270004038024090F83D10012901D0012070470C
:10128000022180F83D1000681149884214D0B0F165
:10129000804F11D00F4988420ED00F4988420BD0A1
:1012A0000E49884208D00E49884205D00D4988422F
:1012B00002D00D49884204D1816801F00701062956
:1012C00003D0016841F00101016000207047000077
:1012D000000001400004004000080040000C0040F5
:1012E00000040140004001400018004001680A6A03
:1012F00041F211131A4207D10A6A9B101A4203D114
:101300000A6822F001020A60012180F83D100020E5
:101310007047704770470000F8B5016804460868D8
:10132000CA684B6910F00F0F4FF0000559D003F059
:10133000010602F49077374365D0C10705D0D10587
:1013400003D5216C41F001012164410705D5D9077E
:1013500003D0216C41F002012164810705D5D90732
:1013600003D0216C41F004012164010707D502F08C
:101370002001314303D0216C41F008012164216C2C
:1013800000293AD0800604D5900602D5204601F007
:1013900030F920684069216CC0F38010090700D43F
:1013A00060B3204601F0FEF820684069400621D570
:1013B0002068143050E8001F21F0400140E800127E
:1013C000002AF5D1A06BA8B16C490165A06BFFF7AD
:1013D0003CF8002811D0A06B016D01B0BDE8F040D1
:1013E000084783060FD593060DD52046BDE8F84083
:1013F00001F0FFB82046FFF78DFFF8BD2046FFF74C
:1014000089FF2564F8BD266B2023012E79D1C606FD
:1014100077D5D60675D508684868009048694006B3
:1014200040D5A16B086840680004000CEAD0A28D8A
:101430008242E7D9E085C869B0F5807F2DD0206869
:101440000C3050E8001F21F4807140E80012002A9F
:10145000F5D12068143050E8001F21F0010140E868
:101460000012002AF5D12068143050E8001F21F046
:10147000400140E80012002AF5D184F83E3025638F
:1014800020680C3050E8001F21F0100140E80012E5
:10149000002AF5D1A06BFEF78FFFA08DE18D401AD9
:1014A00081B229E0A08DE18D401A81B2E08D002843
:1014B000A8D00029A6D020680C3050E8002F22F4D4
:1014C000907240E80026002EF5D12068143050E8D4
:1014D000002F22F0010240E80026002EF5D184F80A
:1014E0003E30256320680C3050E8002F22F01002B7
:1014F00040E80023002BF5D12046FFF70AFFF8BD96
:10150000FFE705062BD5150629D594F83D002128BF
:10151000F5D1A068B0F5805F01D12069B0B1206A33
:10152000411C2162216800784860E08C401E000464
:10153000000CE084E3D12068C16821F08001C16023
:101540002068C16841F04001C160D8E7206A008886
:10155000C0F308004860206A801C2062E5E740066E
:10156000CDD55006CBD5CA68204622F04002CA60CD
:1015700084F83D3000F005F9C1E70000952500082A
:1015800070B5040004D094F83D00002510B106E0C9
:10159000012070BD84F83C50204600F023F8242040
:1015A00084F83D002068C16821F40051C1602046E4
:1015B00001F080F82068016921F490410161206800
:1015C000416921F02A0141612068C16841F400515C
:1015D000C1602564202084F83D0084F83E0000208E
:1015E00070BD000010B586B0044614216846FEF7B1
:1015F00021FE18492068884229D117480021026835
:1016000042F010020260006800F0100005901248DD
:101610001438026842F001020260006800F0010024
:1016200005904FF4C06000900220CDE90101032035
:1016300003900720049069460848FEF77FFF0022C8
:1016400002212520FFF7F2F82520FFF7E1F806B088
:1016500010BD00000010014044380240000002406C
:1016600090F83E30202B0ED159B152B190F83C3059
:10167000012B08D0012380F83C300023036301F0E4
:101680009FB80120704702207047000000680E4993
:10169000884218D10D4801780A290FD0B0F80031DE
:1016A000421C9954B0F8001111F10101A0F8001189
:1016B0000649012201F58270FFF7D2BF012180F8AF
:1016C00002110021F2E77047001001405C01002088
:1016D0002DE9F843044690F83D001F4616460D4696
:1016E00020284CD1C5B1BEB194F83C00012846D0A9
:1016F000012084F83C004FF00008C4F8408021200D
:1017000084F83D00FFF724F8A6848146E684A068AB
:10171000B0F5805F03D004E00120BDE8F8832069C4
:1017200028B12E465FF0000584F83C800EE00026CC
:10173000FAE78021204601F060F8A0B9AEB116F8B2
:10174000010B21684860E08C401EE084E08C4B4631
:101750004FF0000200970028EBD14FF040012046E7
:1017600001F04BF830B10320D7E735F8020BC0F396
:101770000800E6E7202084F83D000020CDE70220A5
:10178000CBE77047FEE70000F0B50D4D002407469B
:101790006B882A882146204600F0AEF92E8868889A
:1017A00000214643084600F08DF900F0CDF94FF0D6
:1017B000D84002E0A0F88070641CB442FAD3F0BDB7
:1017C0005C000020F0B400271949F0222C242A25BF
:1017D0004FF4A0732B2638B101280FD04FF0010C25
:1017E000022813D003281AD08F710A804B800C81F5
:1017F0004D818E810020F0BC00F026B98F710A80E7
:101800004B800C814D818E810320F4E781F806C066
:101810000B804A800C814D818E810520EBE781F899
:1018200006C00B804A800C814D818E810620E2E744
:101830005C00002070B53220FEF71AFE002000F098
:10184000F7F874494FF6FF754FF0D844888049F295
:101850004132FF2804D3A84202D0B0F5134F14D16F
:10186000D320A4F87E0000F0D9F8888000F0D6F8E4
:10187000888000F0D3F805EA0020888000F0CEF8D8
:101880008B881843888090427ED180B290427CD170
:10189000CF2024F87E0F00206080C120608030209F
:1018A0006080ED2020806420608003206080122012
:1018B000608081206080E82020808520608010206A
:1018C00060807A206080CB202080392060802C20AE
:1018D0006080002060803420608002206080F720DB
:1018E000208020206080EA202080002060806080AE
:1018F000C02020801B206080C120208001206080CB
:10190000C5202080302060806080C7202080B720E4
:10191000608036202080482060803A20208055203A
:101920006080B1202080002060801A206080B62076
:1019300020800A206080A2206080F2202080002089
:1019400060802620208001206080E02020800F2001
:1019500060802A20608028206080082060800E201F
:1019600060800820608054206080A920608043202F
:1019700060800A2060800F2060800020608060808E
:1019800060806080E12001E043E035E020800020BD
:101990006080152060801720608007206080112003
:1019A0006080062060802B206080562060803C2074
:1019B000608005206080102060800F2060803F20C4
:1019C000608060800F2060802B202080002060805D
:1019D0006080012060803F2060802A2020800020DD
:1019E000608060806080EF206080112020807820FF
:1019F000FEF73EFD292020800020FFF7E3FE0122B4
:101A0000D1030548FEF79FFE2846BDE87040FFF76A
:101A1000BBBE70BD5C0000200004024008B54FF062
:101A2000D840B0F88000ADF80000BDF8000008BD57
:101A300010B54FF0D841A1F87E000120FEF718FD47
:101A4000BDE81040FFF7EABF1D4B10B59A88002192
:101A5000A2F51344413C32D1082812D2DFE800F04D
:101A6000110406080A0C0E1080210AE0402108E04B
:101A7000C02106E0202104E0602102E0A02100E076
:101A8000E02141F00801362000F068F84FF0D8401E
:101A9000598920F87E1F0021418041801988491E04
:101AA0000A0A4280C9B2418099890180002141809F
:101AB00041805988491E0A0A4280C9B2418010BD3E
:101AC0005C0000200B4B10B59A88A2F51344413CF2
:101AD0000ED14FF0D8425C8922F87E4F040A548020
:101AE000C0B2508098891080080A5080C8B25080D7
:101AF00010BD00005C00002070B50244521E94B27C
:101B0000CA18104B521E95B29A88A2F51346413E50
:101B100016D14FF0D8425E8922F87E6F060A5680B1
:101B2000C0B25080200A5080E0B250809889108066
:101B3000080A5080C8B25080280A5080E8B250800D
:101B400070BD00005C00002003484FF0D8410089C0
:101B5000A1F87E00704700005C0000204FF0D842E2
:101B600022F87E0F5180704710B58EB01C21684658
:101B7000FEF760FB1C2107A8FEF75CFB1A484FF03C
:101B80002041102201601949416006218160002135
:101B9000C160C0E904128161C16113020162C0E940
:101BA00009139302C0E90B134163816341640F2061
:101BB0003C230090CDE9010303AC112384E80E001F
:101BC00009240691CDE907400AA8099480E80E008F
:101BD0000D9107AA69460448FFF77DFA002801D055
:101BE000FEF774FB0EB010BD6C000020040100A0D5
:101BF0002DE9F04387B014216846FEF71BFB5448DB
:101C00000025016841F004010160016801F0040150
:101C10000591016841F020010160016801F0200197
:101C20000591016841F080010160016801F08001C7
:101C30000591016841F002010160016801F00201B3
:101C40000591016841F010010160016801F0100187
:101C50000591016841F008010160016801F0080187
:101C60000591016841F040010160016801F0400107
:101C70000591016841F0010101600068354E00F0F6
:101C800001004FF400540590002221463046FEF733
:101C90005AFD314F00224FF460613846FEF753FD84
:101CA000DFF8B88000224CF201014046FEF74BFD00
:101CB000DFF8AC900022C0214846FEF744FD0094B6
:101CC0000124CDE90145694630460395FEF736FC0F
:101CD0004FF4C060CDE9000469463846CDE90245BD
:101CE000FEF72CFC48F201008DE8310069464046C1
:101CF0000395FEF723FC0620CDE900056946029412
:101D00004046FEF71BFCE0028DE83100694638468C
:101D10000395FEF713FCA003CDE900040294694685
:101D200040460394FEF70AFCC020CDE90004694652
:101D30004846CDE90245FEF701FC2002CDE9000549
:101D4000694602944846FEF7F9FB07B0BDE8F08308
:101D500030380240000802400014024000040240F3
:101D600000180240104810B50E4901604FF482710E
:101D7000416000218160C1604FF400720161C0E9DF
:101D800005123822C0E90721416281620A21C1623D
:101D9000FFF71EF8002803D0BDE81040FEF796BA02
:101DA00010BD000000300140BC0000201CB5002424
:101DB0000E4800940C49019401605321C0E90114BC
:101DC0004FF6FF718461C160FFF712FA08B1FEF7A8
:101DD0007DFA0094694605480194FFF7C1F900288F
:101DE00001D0FEF773FA1CBD001000401401002062
:101DF00010B50E4C0C480C2120604FF4E1306060AF
:101E00000020A060E060C4E90401A061E061204618
:101E1000FFF7B6FB08B1FEF759FA2068C16841F038
:101E20002001C16010BD00000010014060020020D0
:101E3000FEE7FEE71CB514A1D1E90001CDE90001E0
:101E4000102000F0C1F805226946302000F090F81B
:101E500001460FA000F016FD05226946102000F093
:101E600049F8014610A000F00DFD002069460A5C0B
:101E7000A52A03D1401CC0B20528F8D3052801D0FB
:101E800001201CBD00201CBDA5A5A5A5A500000026
:101E900057726974652073746174652069732030AA
:101EA0007825580D0A000000526561642073746142
:101EB000746520697320307825580D0A00000000F1
:101EC00010B5012291030948FEF73DFC00F03AF8F5
:101ED000074C002240212046FEF735FC2046012217
:101EE000BDE810408021FEF72EBC00000004024037
:101EF000001802402DE9F041DFF8408015460F46FA
:101F00000446002280214046FEF71DFC21460C4875
:101F100000F0FCF80646002406E0FF21084800F027
:101F2000F5F83855641CE4B2AC42F6D301228021A6
:101F30004046FEF708FC3046BDE8F081001802403C
:101F4000BC00002010B5094C2068016821F0400158
:101F500001600020206160612046FEF739FF2068A3
:101F6000016841F04001016010BD0000BC0000208C
:101F70002DE9F041DFF8448016460D460446002264
:101F800080214046FEF7DFFB21460D4800F0BEF8F9
:101F90000746002407E000BF15F8011B084800F0C1
:101FA000B5F8641CE4B2B442F6D301228021404665
:101FB000FEF7C9FB3846BDE8F0810000001802407A
:101FC000BC000020704700000B4910B50A68136878
:101FD00023F0400313600A6813684FF6C774234068
:101FE00013600A681368034313600868016841F0CE
:101FF0004001016010BD0000BC00002038B504465F
:102000001248134B0068B0FBF3F04FF47A73584357
:1020100000906068B0F5827F0DD10B4600920022DF
:102020008021204600F016F870B1606D40F020006D
:102030006065032038BD009830B1401E00902068D4
:102040008068C0430006F6D5002038BD540000204B
:1020500000366E012DE9F8431E4691468846044637
:10206000089DFEF775FB401B351AFEF771FB07460E
:1020700025480068C0F3CB30684338E0701C37D087
:10208000FEF766FBC01BA84203D215B1009860B3EF
:102090002CE02068416821F0E00141606068B0F503
:1020A000827F0BD1A068B0F5004F02D0B0F5806FF1
:1020B00004D12068016821F040010160A06AB0F5F8
:1020C000005F09D12068016821F400510160206897
:1020D000016841F400510160012084F851000020A2
:1020E00084F850000320BDE8F8830025401E0090CE
:1020F0002068816838EA010004D000214945BDD13B
:102100000020F0E70121F9E7540000203EB5FF244C
:102110008DF80810012301AA02A90094FEF7EAFE37
:1021200008B18DF804409DF804003EBD7047FEF7ED
:1021300015BB000030B593B030216846FEF77AF841
:1021400014210CA8FEF776F81E480025016841F01E
:1021500080510160006800F0805011901A480168B9
:1021600041F4804101600068022400F48040119035
:1021700001200090000401908001CDE90640082074
:1021800008904FF4A870CDE9090404200B9068462C
:10219000FEF768FC08B172B6FEE70CA90F2081E8D3
:1021A00031004FF4A0500F904FF480501090052153
:1021B0000CA8FEF76DFB002801D072B6FEE713B045
:1021C00030BD000040380240007000400248016805
:1021D00041F470010160704788ED00E0F0B50268DD
:1021E000254C264D264E274F274B4FF0804CA042C2
:1021F00009D0604507D0A84205D0B04203D0B8420C
:1022000001D0984204D122F0700E4A6842EA0E02D0
:10221000A0421BD0604519D0A84217D0B04215D0BB
:10222000B84213D0984211D0184DA8420ED0184D84
:10223000A8420BD0174DA84208D0174DA84205D090
:10224000164DA84202D0164DA84203D122F4407583
:10225000CA682A434D6922F080022A4302608A68D4
:10226000C2620A688262A04201D0984201D1096923
:10227000016301214161F0BD000001400004004004
:1022800000080040000C00400004014000400140F4
:10229000004401400048014000180040001C00407C
:1022A0000020004070B50649A1F10A000C46054621
:1022B00000F09AF82146284600F096F8012070BDFB
:1022C0001A0000202DE9F04700252B4E07462C462A
:1022D0002A4601213046FEF736FA0022F11427483B
:1022E000FEF731FADFF898904FF40058002241468B
:1022F0004846FEF728FA384600F020F9062000F09C
:1023000051FC002201213046FEF71DFA012000F0A9
:1023100049FC012211463046FEF715FA012000F073
:1023200041FC002201213046FEF70DFA4FF6FF77FF
:1023300007EA4404002201213046FEF704FA012096
:1023400000F030FC012211463046FEF7FCF9042172
:102350003046FEF7EBF908B1641CA4B26D1CEDB277
:10236000102DE5D32409012241464846FEF7EBF93A
:102370002046BDE8F087000000040240001402403F
:1023800000080240FEB5064600256C463046FFF7C1
:1023900099FF24F815006D1CADB2052DF6D3002071
:1023A000431C99B20CE000BF34F8102034F81150EF
:1023B000AA4203D924F8105024F81120491C89B2EC
:1023C0000529F1D398B20428EAD300215FF0010077
:1023D00034F81020401C114480B289B20428F7D38D
:1023E0000320B1FBF0F0FEBD2DE9F041074C06469D
:1023F0000D462078FFF7C6FF07466078FFF7C2FF5B
:10240000378028800120BDE8F08100000000002016
:102410007FB50C460546694602A8FFF7E5FF002890
:102420002FD001A903A8FFF7DFFF002829D0BDF8AE
:102430000C30BDF80820934203D803F132008242E9
:1024400005D39A421FD802F1320083421BD2BDF855
:102450000410BDF80000814203D801F13206B042F9
:1024600004D388420FD8323081420CD2D0184008B1
:102470002880BDF80000BDF8041008444008208002
:10248000012004B070BD0020FBE7000070B50546D8
:1024900002212848FEF74AF9274C40B194F8200061
:1024A00001063BD520F0800084F820003DE0224862
:1024B00000F116010C3015B1FFF7AAFF22E0FFF77B
:1024C000A7FFF8B1A089D4ED0B0A00EE100A94ED35
:1024D000091AB8EE400A41EE000ABCEEE00A10EE1E
:1024E000100AA081E08A94ED0C0A00EE900A94EDA7
:1024F0000A1AF8EE600A01EE200ABCEEC00A10EEDD
:10250000100AE08294F8200000060ED4C02084F85F
:102510002000A089A082E08AE08306E00020A0825B
:10252000E0834FF6FF70A081E08294F8200000F075
:10253000800070BD00040240040000202DE9F0413D
:10254000DFF84880124E054600244FF40067280645
:1025500001D5012200E0002239464046FEF7F3F89B
:102560006806050E002201213046FEF7ECF8012036
:1025700000F018FB012211463046FEF7E4F8641C17
:10258000E4B2082CE3D3BDE8F0810000001402405F
:102590000004024010B5806B0021C185C184FEF7A4
:1025A000B9FE10BD01680C3151E8002F22F4907281
:1025B00041E80023002BF5D10168143151E8002FC8
:1025C00022F0010241E80023002BF5D1016B012923
:1025D00009D101680C3151E8002F22F0100241E8C6
:1025E0000023002BF5D1202180F83E10002101634B
:1025F000704708B590F83E10222901D0022008BD8E
:1026000082684FF480539A4201D1016921B1816AF5
:102610009A421BD04AB10AE00268816A5268C2F34A
:1026200008020A80816A891C08E0026972B10268A6
:10263000526802F07F020A70816A491C8162C18D72
:10264000491E0904090CC18503D019E002685268CB
:10265000F1E70168CA6822F02002CA600168CA680E
:1026600022F48072CA6001684A6922F001024A615C
:10267000202180F83E10016B012903D0FFF706F8F6
:10268000002008BD0021016301680C3151E8002FD2
:1026900022F0100241E80023002BF5D101680A68FE
:1026A000D20602D50A6849680091818DFEF731FE95
:1026B000E6E7000070B5044600680169E26821F4AD
:1026C0004051114301612169A068E26908436169D1
:1026D000114308432168CA6849F20C639A430243D4
:1026E000CA6020684169A26921F4407111434161C7
:1026F00031492068884202D03049884202D1FEF731
:1027000071F901E0FEF75EF9E26900231921642501
:102710003226B2F5004F626828D0A0FB0101930F6A
:102720009200FDF74FFD0146B0FBF5F06FF0180287
:10273000504301EB800006EB0010B0FBF5F000F019
:10274000F002B1FBF5F002EB0012B1FBF5F06FF017
:102750001803584301EB800006EB0010B0FBF5F0C6
:1027600000F00F0021681044886070BDA0FB0101DB
:1027700092185B41FDF726FD0146B0FBF5F0020122
:10278000B1FBF5F06FF01803584301EB800006EB46
:10279000C000B0FBF5F000F0F80002EB4002B1FB26
:1027A000F5F0584301EB800006EBC000B0FBF5F0FC
:1027B00000F00700D6E700000010014000140140BF
:1027C00081628285C28500210164222280F83E2038
:1027D00080F83C10016921B10168CA6842F4807236
:1027E000CA6001684A6942F001024A610068C16832
:1027F00041F02001C160002070472DE9F04198466A
:1028000017460E460446069D27E0681C25D02DB1CC
:10281000FDF79EFFA0EB0800A8421ED920680C30EF
:1028200050E8001F21F4D07140E80012002AF5D1D1
:102830002068143050E8001F21F0010140E8001228
:10284000002AF5D1202084F83D0084F83E000020C5
:1028500084F83C000320BDE8F0812068006836EA77
:10286000000004D00020B842CFD00020F3E70120C0
:10287000F9E700000148FEF74FBD000060020020AC
:10288000FEE700000FB4054B10B503A9044A0298F7
:1028900000F028F810BC5DF814FB0000D52B0008F0
:1028A000580000200907090E002804DB00F1E02091
:1028B00080F80014704700F00F0000F1E02080F86D
:1028C000141D704702E008C8121F08C1002AFAD17F
:1028D00070477047002001E001C1121F002AFBD1A0
:1028E000704700002DE9FF4F8DB09B460F46044610
:1028F000002606E025280BD05A460F999047641C05
:10290000761C20780028F5D111B03046BDE8F08F54
:102910000025A8460122984900E0054314F8013F2C
:10292000203B02FA03F00842F7D120782E2817D175
:1029300014F8010F45F004052A280ED06FF02F027D
:102940002078A0F1300109290AD808EB880102EBB0
:10295000410100EB0108641CF2E757F8048B641C8A
:1029600020786C280DD004DC4C2812D06A2811D1B4
:1029700004E074280DD07A280CD10AE045F4001543
:1029800007E0617845F48015814202D1641C05F5A9
:102990008015641C2078692844D008DC0028B3D056
:1029A000582867D063280FD0642808D13AE07028EF
:1029B00065D0732812D075285AD078285AD05A4634
:1029C0000F999047761CD5E017F8040B8DF800009E
:1029D00000208DF80100E946012003E057F8049B30
:1029E0004FF0FF3069074FF0000501D40AE06D1C7D
:1029F00045450DDA8542FADB19F805100029F6D1B4
:102A000006E06D1C8542FCDB19F805100029F8D1A1
:102A10002E4404E019F8010B5A460F9990476D1E99
:102A2000F8D2A7E00A200021CDE90801C5F3025041
:102A300002280CD001CFC117021E71F100020CDA7E
:102A40000023D0EB030063EB01012D2208E0FF1D02
:102A500027F00707F7E80201EEE72A0504D52B2245
:102A60008DF8282001223CE0EA073AD02022F7E73F
:102A70000A2000E010200021CDE9080107E0102025
:102A8000002145F00405CDE908014FF00808C5F321
:102A90000250022810D001CF00214FF0000A2A076F
:102AA00020D52278702A0DD0DDE908C38CF0100CF7
:102AB0005CEA030C0CD015E0FF1D27F00707F7E8D0
:102AC0000201EAE740228DF828204FF0010A0CE0CD
:102AD00050EA010306D030238DF828308DF82920E4
:102AE000022292462278582A04D024A20DF120090D
:102AF0000B9209E026A2F9E7DDE90823FDF762FB66
:102B00000B9B9B5C09F8013D50EA0102F4D1ADEB4F
:102B1000090020300890680701D44FF00108089997
:102B2000884503DD0898A8EB000000E000208046FF
:102B3000002506E00AA85A46405D0F9990476D1C93
:102B4000761C5545F6DB04E030205A460F99904735
:102B5000761CB8F10001A8F10108F5DC05E019F8D0
:102B6000010B5A460F999047761C0899481E089009
:102B70000029F4DC641CC4E609280100303132333A
:102B800034353637383961626364656600000000A9
:102B90003031323334353637383941424344454693
:102BA0000000000070B54FF6FA75281A84B2084884
:102BB000FEF760FB064801684C62006801E0416A6C
:102BC0008CB2AC42FBD3BDE870400148FEF78EBB2F
:102BD0001401002013B54FF6FF7301226946054822
:102BE000FEF776FD034800680168C9434906FBD437
:102BF00000981CBD60020020FDF7B8FDFFF79AFAAF
:102C0000FEF7F6FFFEF7B0FFFFF7F2F8FFF7CEF89A
:102C1000FFF7A8F8FEF70EFEFFF752F9012222494E
:102C20002248FEF71DFD204C0120FFF72FFC28B1A4
:102C30001F48C28A81891FA0FFF724FE94F8020171
:102C40000128F1D1002084F8020120A1601CFDF7C9
:102C5000FCFA90B9611C1FA0FFF714FE1E48017812
:102C60001EA0FFF70FFE214D4FF400712846FDF71F
:102C700062FD29152846FDF75EFD1DA1601CFDF7CC
:102C8000E4FA48B9611C13A0FFF7FCFDFFF7D2F886
:102C9000014619A0FFF7F6FD1CA0FFF7F3FDFF2189
:102CA000601CFDF7C7FABFE75C010020600200204E
:102CB000040000207820697320307825582C792072
:102CC000697320307825580D0A0000004C45440DEA
:102CD00000000000257300004400002074656D7042
:102CE0002069732025640D0A0000000000140240D2
:102CF0004E52460D000000004E52465F73746174E0
:102D00006520697320305825580D0A0055415254EA
:102D10005F464C41470D0A00000000000000000023
:102D20000102030406070809000000000102030471
:102D3000502D0008000000205C000000C42800089E
:102D4000AC2D00085C0000204C120000D4280008C4
:102D5000D0900000A52200088D240008000000008B
:102D60000000000000000000000000000000000063
:102D70000000000000000000000000000000000053
:102D80000000000000000000000000000000000043
:102D90000000000002000000010000001000000020
:0C2DA000000000000024F400000000000F
:040000050800018965
:00000001FF
