:020000040800F2
:1000000008120020A1010008231D00084517000860
:10001000211D000843070008B1230008000000006C
:10002000000000000000000000000000271D000884
:100030004507000800000000251D0008291D0008D4
:10004000BB010008BB010008BB010008BB010008A0
:10005000BB010008BB010008BB010008BB01000890
:10006000BB010008BB010008BB010008BB01000880
:10007000BB010008BB010008BB010008BB01000870
:10008000BB010008BB010008BB010008BB01000860
:10009000BB010008BB010008BB010008BB01000850
:1000A000BB010008BB010008BB010008BB01000840
:1000B000BB010008BB010008BB010008BB01000830
:1000C000BB010008BB010008BB010008BB01000820
:1000D000BB010008A5230008BB010008BB01000804
:1000E000BB010008BB010008BB010008BB01000800
:1000F000BB010008BB010008BB010008BB010008F0
:10010000BB010008BB010008BB010008BB010008DF
:10011000BB010008BB010008BB010008BB010008CF
:10012000BB010008BB010008BB010008BB010008BF
:10013000BB010008BB010008BB010008BB010008AF
:10014000BB010008BB010008BB010008BB0100089F
:10015000BB010008BB010008BB010008BB0100088F
:10016000BB010008BB010008BB010008BB0100087F
:10017000BB010008BB010008BB0100080000000033
:10018000BB010008BB010008DFF810D000F058FAEE
:1001900000480047C52C0008AFF30080081200207B
:1001A0000648804706480047FEE7FEE7FEE7FEE711
:1001B000FEE7FEE7FEE7FEE7FEE7FEE7C51D0008F7
:1001C000890100082DE9F05F0546002092469B4614
:1001D00088460646814640241BE02846414647465D
:1001E000224600F065F853465A46C01A914110D392
:1001F00011461846224600F04CF82D1A67EB01080C
:100200004F4622460120002100F043F817EB000979
:100210004E41201EA4F10104DFDC484631462A4647
:100220004346BDE8F09FD2B201E000F8012B491E21
:10023000FBD270470022F6E710B513460A46044683
:100240001946FFF7F0FF204610BD10B5002200E070
:10025000521C835C8C5CA34201D1002BF8D1D8B234
:10026000E1B2401A10BD30B50B46014600202022F5
:10027000012409E021FA02F59D4205D303FA02F5B3
:10028000491B04FA02F52844151EA2F10102F1DC13
:1002900030BD202A04DB203A00FA02F1002070472A
:1002A0009140C2F1200320FA03F3194390407047B4
:1002B000202A04DB203A21FA02F00021704721FABB
:1002C00002F3D040C2F12002914008431946704722
:1002D0002DE9FE4F804681EA0300C00F0C460090D6
:1002E00021F0004123F00045B8EB0200A94105D2FE
:1002F0004046214690461C460B46024623F00040ED
:10030000104347D0270DC7F30A00C3F30A510290E8
:10031000401A019040286BDAC3F3130040F4801BAD
:100320000098924620B10023D2EB030A63EB0B0B3B
:1003300001985946C0F140025046FFF7AAFF064611
:100340000D4650465946019A00F08CF910EB080012
:100350006141002487EA115284EAE7731A4340D0CE
:10036000009A62B3019A012A4FEA075215DC001B7A
:1003700061EB02014FF0004202EA0752CDE9004270
:10038000001C41F5801132462B4600F08CF903B079
:10039000BDE8F08F40462146F9E7001B61EB020102
:1003A000001C41F5801300185B412018A2F50017CE
:1003B00047EB030140EAD570B6196D4111E06D08B5
:1003C0004FEA360645EAC0754FEA0752001B61EB5B
:1003D0000201001C41F5801149084FEA3000001964
:1003E000514132462B4603B0BDE8F04F00F04CB906
:1003F0000098012240000023D0EB020263EBE0737F
:10040000009821464FEAE074B8EB000061EB04016C
:10041000E9E783F000435BE781F0004158E72DE90D
:10042000FE4F81EA030404F0004421F000410094EF
:100430004FF0000B23F0004350EA01045ED052EA73
:1004400003045BD0C3F30A54C1F30A552C44A4F24D
:10045000F3340194A0FB0254C1F3130141F4801161
:10046000C3F3130343F4801301FB024400FB034E68
:10047000840A970A44EA815447EA8357A4FB076831
:1004800002958D0A05FB07854FEA932C04FB0C545B
:100490002705029D4FEA065847EA1637B5EB0805CF
:1004A0006EEB070C870E920E47EA811742EA831221
:1004B000A7FB0201B6EB0B0164EB00042B0D43EA32
:1004C0000C335E1844EB1C50DA465146E7FB020140
:1004D000C5F313044FEA0B3343EA14534FEA0432D3
:1004E000019C43EA0603A4F10C040294009CCDE9AC
:1004F00000B400F0D8F803B0BDE8F08F002001464A
:10050000F9E72DE9F04D81EA030404F0004B21F0F6
:10051000004514464FF0000A23F0004150EA05025E
:1005200020D054EA01021DD0C5F30A570246C5F394
:100530001303C1F31300C1F30A5640F4801543F4CA
:100540008013A7EB0608101BD64608F2FD3873EBA4
:10055000050002D308F1010801E092185B41B8F1EF
:10056000000F03DA00200146BDE8F08D00204FF4B3
:100570008011064684460EE0171B73EB050705D372
:10058000121B63EB050306434CEA010C49084FEAD2
:10059000300092185B4150EA0107EDD152EA0300A6
:1005A00012D082EA040083EA0501084305D0101B3B
:1005B000AB4106D20122002306E000224FF00043A7
:1005C00002E06FF0010253101AEB06004CEB0851E9
:1005D00010EB0A0041EB0B01BDE8F04D00F054B800
:1005E000C1F30A52C1F3130140F2FF3341F4801109
:1005F0009A4202DA00200146704740F233439A42A1
:10060000A2F2334202DC5242FFF752BEFFF741BE74
:1006100030B5041E71F1000404DB4FF00044404289
:1006200064EB0101141E73F1000405DB1C464FF05E
:100630000043524263EB0403994208BF904230BD2D
:10064000064C074D06E0E06840F0010394E807001F
:1006500098471034AC42F6D3FFF79AFDC02D00083E
:10066000E02D0008202A06DBCB17203A41FA02F0E1
:1006700043EAE07306E041FA02F3D040C2F12002FF
:10068000914008431946704710B5141E73F10004D9
:1006900008DA401C41F1000192185B411A4301D174
:1006A00020F0010010BD2DE9F04D92469B4611B19E
:1006B000B1FA81F202E0B0FA80F220329046FFF700
:1006C000E8FD04460F4640EA0A0041EA0B015346A2
:1006D0005A46084313D0114653EA010019D0C8F115
:1006E00040025046FFF7E4FD05460E465046594687
:1006F0004246FFF7CEFD084305D0012004E0204626
:100700003946BDE8F08D0020054346EAE0762C43EB
:1007100037430A986305E40AA0EB08000022FD0AAB
:1007200044EA47540A3002D500200146E9E70105B2
:1007300010196941DDE9084500196941BDE8F04D2E
:10074000A2E7FEE7704772B6FEE7000030B5B3F5EA
:10075000804F05D06FF0704140F82210002030BD6E
:100760008C690B688D6823434C688989240144EAAD
:100770000524234343EA014150F82230014C234031
:100780001943E9E70000F0CF10B50A6850F82230AD
:1007900023F0010340F822308C68082C23D000237A
:1007A0004A682243CC681C430B6922431A434B69B5
:1007B0000E4C1A43CB691A430B6A1A434B6A1A430D
:1007C0008B6A1A43CB6A1A430B6B1A438B69134328
:1007D000CA6B09681A4350F82130A343134340F809
:1007E0002130002010BD4023DAE700007FFF0F001A
:1007F00030B5D1E9003443EA04138C688D892402B2
:1008000044EA054423430C8A094D00EB820005EBC2
:10081000045423430C7D6D0105EB04648969234373
:100820000B43416801F040410B434360002030BD61
:100830000000F0FF2DE9F0410446876D00F0C6F995
:10084000064694F835000025022806D08020606511
:1008500084F834500120BDE8F0812068016821F05F
:10086000160101602068416921F080014161206C1E
:1008700008B9A06C20B12068016821F0080101606E
:100880002068016821F0010101600CE000F09EF990
:10089000801B052807D920206065032084F83500D7
:1008A00084F83450D7E720680068C007EED194F888
:1008B0005C103F208840B860012084F8350084F83F
:1008C00034500020C7E790F83510022903D080216A
:1008D000416501207047052180F8351000680168E6
:1008E00021F00101016000207047000070B504464E
:1008F00000F06CF90546601C02D0044800780444FE
:1009000000F064F9401BA042FAD370BD48000020FB
:100910002DE9F04186B014216846FFF78BFC204892
:100920000168002939D1012101601E4800240168B5
:1009300041F00101016000684FF4805800F00100AF
:100940000C27CDF80080CDE904700326022503961C
:10095000CDE901546946144800F02EF84FF6807036
:10096000CDE9000502AA694682E8D0000F4800F0F0
:1009700023F84CF23370CDE9000502AA694682E8FB
:10098000D0000B4800F018F802AA694682E8D000AF
:10099000CDE90085074800F00FF806B0BDE8F0810A
:1009A0003C00002038380240001402400010024091
:1009B000000C0240001802402DE9F84FDFF8BCA1FE
:1009C0000022012503264FF00F090AF1040BAAF1BA
:1009D000040E00BF0B6805FA02F42340A34270D155
:1009E0000F7907F00307012F01D0022F16D1876876
:1009F0004FEA420806FA08FC27EA0C07D1F80CC0B7
:100A00000CFA08FC4CEA070CC0F808C04768A7437A
:100A10000C79C4F3001494403C4344600C79E443E3
:100A2000A4070AD0C4684FEA420C06FA0CF7BC438C
:100A30008F6807FA0CF72743C7600C7904F00304AA
:100A4000022C12D1D40800EB840CDCF820405707AC
:100A5000FF0E09FA07F824EA0804D1F8108008FA12
:100A600007F848EA0408CCF8208004684FEA420CF2
:100A700006FA0CF7BC430F7907F0030707FA0CF7E7
:100A8000274307604C6814F4403F70D03C4C276803
:100A900047F480472760246822F0030704F4804469
:100AA0000094384C07EB040CDCF8084897074FEA31
:100AB000177809FA08F7BC43334FB84202D1002730
:100AC00024E054E0314FB84201D101271EE0304FFD
:100AD000B84201D1022719E02E4FB84201D10327B5
:100AE00014E02D4FB84201D104270FE02B4FB8423C
:100AF00001D105270AE02A4FB84201D1062705E0B7
:100B0000284FB84201D1072700E0082707FA08F765
:100B10002743CCF80878DAF800405746D1F804C0EB
:100B20009C435FEACC2C00D51C433C60DBF80040C2
:100B30005F46D1F804C09C435FEA8C2C00D51C436F
:100B40003C60DEF800407746D1F804C09C435FEA81
:100B50008C3C00D51C433C60084F083F3C68D1F8F2
:100B600004C09C435FEACC3C00D51C433C60521C53
:100B7000102AFFF42FAFBDE8F88F0000083C0140B9
:100B800044380240003001400000024000040240AE
:100B900000080240000C0240001002400014024015
:100BA00000180240001C02400069084000D00120EB
:100BB0007047426921EA02030A4043EA0241816127
:100BC00070470AB1816170470904FBE701488068FA
:100BD00070470000480000200248816802781144F4
:100BE00081607047480000200B4810B5016841F44F
:100BF00000710160016841F480610160016841F4A5
:100C000080710160032000F06FF80F2000F006F8FB
:100C100000F024F8002010BD003C024070B50D4DDE
:100C200004464FF47A712878B1FBF0F00A4909685C
:100C3000B1FBF0F000F03AFB48B9102C07D20022CB
:100C40002146501E00F030F800206C6070BD01207D
:100C500070BD000048000020540000200A4808B57C
:100C6000016841F480410160006800F48040009018
:100C70000548001F016841F080510160006800F0E4
:100C80008050009008BD000044380240002809DB75
:100C900000F01F02012191404009800000F1E02096
:100CA000C0F8001170470000F0B40E4B1B680C46F2
:100CB000C3F30223C3F10705042D00D90425191D30
:100CC000072901D2002300E0DB1E012606FA05F108
:100CD000491E214099409E40761E16403143F0BC8B
:100CE00001F078BB0CED00E0064900F0070208684F
:100CF0004FF6FF03184040EA0220034A1043086001
:100D0000704700000CED00E00000FA052DE9F04707
:100D10000E46050065D0DFF81481D8F80000F7B260
:100D200000F00700B04207D288F80070D8F8000041
:100D300000F00700B04254D128683D4C810712D51D
:100D4000400703D5206840F4E05020602878000771
:100D500003D5206840F4604020602068A96820F036
:100D6000F000084320602878C0072DD0304968681B
:100D70000839012812D0022813D0032811D009689D
:100D8000890700292DDA216821F003010143216040
:100D9000FFF71CFF814641F2883A0EE0096889039B
:100DA000EFE709688901ECE7FFF710FFA0EB090105
:100DB000514502D90320BDE8F0872068696800F03A
:100DC0000C00B0EB810FEFD1D8F80010404601F0D5
:100DD0000701B14207D90770006800F00700B04270
:100DE00001D00120E7E72878400705D52068E968A9
:100DF00020F4E050084320602878000706D52068DA
:100E0000296920F4604040EAC100206000F038F811
:100E10002168084AC1F30311515CC84006490860C3
:100E200006480068FFF7FAFE0020C4E7003C0240D5
:100E300008380240A82D0008540000204C00002073
:100E40000448054900680968044AC1F38221515CDD
:100E5000C84070475400002008380240B82D0008F0
:100E60000448054900680968044AC1F34231515CED
:100E7000C84070475400002008380240B82D0008D0
:100E8000154810B5006810F00C02144813D041103A
:100E9000042A0FD0082A0ED10F4C241F2268236881
:100EA00002F03F025B0207D52068C0F38810A0FB68
:100EB000010106E0084610BD2168C1F38811A1FBBD
:100EC00000010023FFF77EF92168C1F30141491CAD
:100ED0004900B0FBF1F010BD083802400024F400D6
:100EE0002DE9F84F04006ED02078DFF84C93C0074E
:100EF000A9F104054AD009F104000168C1F3810198
:100F0000012908D00068C0F3810002280AD1D9F86D
:100F10000000400206D52868800337D560680028A5
:100F2000E1D033E06068B0F5803F10D0B0F5A02F7D
:100F3000286810D020F480302860286820F48020B1
:100F400028606068A8B1FFF741FE06460DE02868FA
:100F500040F48030F4E740F480202860F7E700BFD9
:100F6000FFF734FE801B642873D828688003F7D508
:100F70000CE0FFF72BFE064605E000BFFFF726FE5C
:100F8000801B6428F0D828688003F7D42078DFF825
:100F9000AC8280074FF0000A3ED5A748001D0168CB
:100FA00011F00C0F08D00068C0F3810002280BD1AB
:100FB000D9F80000400207D42868800716D5E068F9
:100FC000012800D112E033E1E068B8B10120C8F88F
:100FD0000000FFF7FBFD064605E000BFFFF7F6FD4A
:100FE000801B0228C0D828688007F7D528682169A7
:100FF00020F0F80040EAC10028600DE0C8F800A029
:10100000FFF7E4FD064604E0FFF7E0FD801B022841
:101010001FD828688007F7D42078000722D5864F8C
:1010200087486169703771B101210160FFF7CEFD1A
:10103000064604E0FFF7CAFD801B022809D838687D
:101040008007F7D50EE0C0F800A0FFF7BFFD064609
:1010500005E082E0FFF7BAFD801B02287DD83868E2
:101060008007F7D42078400768D5DFF8CCB1002797
:101070000BF13C0BDBF80000C0000BD4DBF80010D8
:1010800041F08051CBF80010DBF80000012700F0A0
:10109000805000906B4E3068C00510D4306840F42A
:1010A00080703060FFF792FD009005E0FFF78EFD45
:1010B0000099401A022850D83068C005F6D55E4E17
:1010C000A0686C3601280FD00528306810D020F0B9
:1010D00001003060306820F004003060A068B8B1D2
:1010E000FFF774FD00900FE0306840F00100F4E776
:1010F00040F004003060F7E7FFF768FD0099411AFF
:1011000041F28830814266D830688007F4D50EE01D
:10111000FFF75CFD009007E0FFF758FD0099411ACA
:1011200041F28830814256D830688007F4D42FB11C
:10113000DBF8001021F08051CBF80010A069C8B393
:101140003D49091D0968C1F3810102294AD00228DD
:10115000504607D0C8F8600000E03CE0FFF736FDDD
:1011600004463BE04746C8F86000FFF72FFD0646FF
:1011700005E000BFFFF72AFD801B02282BD8286856
:101180008001F7D4D4E907010843A16A2E4A49082F
:1011900002EB0141626A41EA8211084394F82C1083
:1011A00040EA0161C9F8001001203866FFF70EFD22
:1011B000044606E03EE000BFFFF708FD001B0228E2
:1011C00009D828688001F7D534E000BFFFF7FEFC9E
:1011D000001B022802D90320BDE8F88F286880018F
:1011E000F4D427E00128F7D0D9F80000E26900F430
:1011F000800191421CD1226A00F03F01914217D137
:1012000047F6C071626A0140B1EB821F10D1A26A39
:101210004FF0FF3300F4403103EB5202B1EB024FC9
:1012200006D194F82C1000F07060B0EB016F01D083
:101230000120D1E70020CFE70438024000004742F8
:10124000800E4742007000400000FFFF70B5154659
:101250000E46040003D094F8490010B107E00120C5
:1012600070BD002084F84800204600F01DF804F10D
:1012700008012068FFF788FA3146A2682068FFF766
:10128000B7FAD4E901022946236BFFF75FFA216818
:10129000A06851F8202042F0010241F820200120EE
:1012A00084F84900002070BDFFF732BB10B5401E26
:1012B000B0F1807F01D3012010BD4FF0E0246061C8
:1012C0000F21601701F086F80020A061072020613F
:1012D000002010BD70477047F8B5016804460868E3
:1012E000CA684B6910F00F0F4FF0000559D003F09A
:1012F000010602F49077374365D0C10705D0D105C8
:1013000003D5216C41F001012164410705D5D907BE
:1013100003D0216C41F002012164810705D5D90772
:1013200003D0216C41F004012164010707D502F0CC
:101330002001314303D0216C41F008012164216C6C
:1013400000293AD0800604D5900602D5204600F048
:10135000E8FE20684069216CC0F38010090700D4C2
:1013600060B3204600F0B6FE20684069400621D5F3
:101370002068143050E8001F21F0400140E80012BE
:10138000002AF5D1A06BA8B16C490165A06BFFF7ED
:101390009AFA002811D0A06B016D01B0BDE8F040B1
:1013A000084783060FD593060DD52046BDE8F840C3
:1013B00000F0B7BE2046FFF78EFFF8BD2046FFF7CE
:1013C0008AFF2564F8BD266B2023012E79D1C6063D
:1013D00077D5D60675D508684868009048694006F4
:1013E00040D5A16B086840680004000CEAD0A28DCB
:1013F0008242E7D9E085C869B0F5807F2DD02068AA
:101400000C3050E8001F21F4807140E80012002ADF
:10141000F5D12068143050E8001F21F0010140E8A8
:101420000012002AF5D12068143050E8001F21F086
:10143000400140E80012002AF5D184F83E302563CF
:1014400020680C3050E8001F21F0100140E8001225
:10145000002AF5D1A06BFFF7EDF9A08DE18D401AC0
:1014600081B229E0A08DE18D401A81B2E08D002883
:10147000A8D00029A6D020680C3050E8002F22F414
:10148000907240E80026002EF5D12068143050E814
:10149000002F22F0010240E80026002EF5D184F84A
:1014A0003E30256320680C3050E8002F22F01002F7
:1014B00040E80023002BF5D12046FFF70BFFF8BDD5
:1014C000FFE705062BD5150629D594F83D00212800
:1014D000F5D1A068B0F5805F01D12069B0B1206A74
:1014E000411C2162216800784860E08C401E0004A5
:1014F000000CE084E3D12068C16821F08001C16064
:101500002068C16841F04001C160D8E7206A0088C6
:10151000C0F308004860206A801C2062E5E74006AE
:10152000CDD55006CBD5CA68204622F04002CA600D
:1015300084F83D3000F005F9C1E70000C52000083F
:1015400070B5040004D094F83D00002510B106E009
:10155000012070BD84F83C50204600F023F8242080
:1015600084F83D002068C16821F40051C160204624
:1015700000F038FE2068016921F490410161206883
:10158000416921F02A0141612068C16841F400519C
:10159000C1602564202084F83D0084F83E000020CE
:1015A00070BD000010B586B0044614216846FEF7F1
:1015B00041FE18492068884229D117480021026855
:1015C00042F010020260006800F01000059012481E
:1015D0001438026842F001020260006800F0010065
:1015E00005904FF4C06000900220CDE90101032076
:1015F00003900720049069460848FFF7DDF90022B0
:1016000002212520FFF750FB2520FFF73FFB06B006
:1016100010BD0000001001404438024000000240AC
:1016200090F83E30202B0ED159B152B190F83C3099
:10163000012B08D0012380F83C300023036300F025
:1016400057BE0120704702207047000000680E4915
:10165000884218D10D4801780A290FD0B0F800311E
:10166000421C9954B0F8001111F10101A0F80011C9
:101670000649012201F58270FFF7D2BF012180F8EF
:1016800002110021F2E7704700100140BC00002069
:101690002DE9F843044690F83D001F4616460D46D6
:1016A00020284CD1C5B1BEB194F83C00012846D0E9
:1016B000012084F83C004FF00008C4F8408021204D
:1016C00084F83D00FFF782FAA6848146E684A0688C
:1016D000B0F5805F03D004E00120BDE8F883206905
:1016E00028B12E465FF0000584F83C800EE000260D
:1016F000FAE78021204600F018FEA0B9AEB116F836
:10170000010B21684860E08C401EE084E08C4B4671
:101710004FF0000200970028EBD14FF04001204627
:1017200000F003FE30B10320D7E735F8020BC0F319
:101730000800E6E7202084F83D000020CDE70220E5
:10174000CBE77047FEE70000F0B50D4D00240746DB
:101750006B882A882146204600F0AEF92E886888DA
:1017600000214643084600F08DF900F0CDF94FF016
:10177000D84002E0A0F88070641CB442FAD3F0BDF7
:101780005C000020F0B400271949F0222C242A25FF
:101790004FF4A0732B2638B101280FD04FF0010C65
:1017A000022813D003281AD08F710A804B800C8135
:1017B0004D818E810020F0BC00F026B98F710A8027
:1017C0004B800C814D818E810320F4E781F806C0A7
:1017D0000B804A800C814D818E810520EBE781F8DA
:1017E00006C00B804A800C814D818E810620E2E785
:1017F0005C00002070B53220FFF778F8002000F080
:10180000F7F874494FF6FF754FF0D844888049F2D5
:101810004132FF2804D3A84202D0B0F5134F14D1AF
:10182000D320A4F87E0000F0D9F8888000F0D6F824
:10183000888000F0D3F805EA0020888000F0CEF818
:101840008B881843888090427ED180B290427CD1B0
:10185000CF2024F87E0F00206080C12060803020DF
:101860006080ED2020806420608003206080122052
:10187000608081206080E8202080852060801020AA
:1018800060807A206080CB202080392060802C20EE
:101890006080002060803420608002206080F7201B
:1018A000208020206080EA202080002060806080EE
:1018B000C02020801B206080C1202080012060800B
:1018C000C5202080302060806080C7202080B72025
:1018D000608036202080482060803A20208055207B
:1018E0006080B1202080002060801A206080B620B7
:1018F00020800A206080A2206080F22020800020CA
:1019000060802620208001206080E02020800F2041
:1019100060802A20608028206080082060800E205F
:1019200060800820608054206080A920608043206F
:1019300060800A2060800F206080002060806080CE
:1019400060806080E12001E043E035E020800020FD
:101950006080152060801720608007206080112043
:101960006080062060802B206080562060803C20B4
:10197000608005206080102060800F2060803F2004
:10198000608060800F2060802B202080002060809D
:101990006080012060803F2060802A20208000201D
:1019A000608060806080EF2060801120208078203F
:1019B000FEF79CFF292020800020FFF7E3FE012294
:1019C000D1030548FFF7FDF82846BDE87040FFF752
:1019D000BBBE70BD5C0000200004024008B54FF0A3
:1019E000D840B0F88000ADF80000BDF8000008BD98
:1019F00010B54FF0D841A1F87E000120FEF776FF28
:101A0000BDE81040FFF7EABF1D4B10B59A880021D2
:101A1000A2F51344413C32D1082812D2DFE800F08D
:101A2000110406080A0C0E1080210AE0402108E08B
:101A3000C02106E0202104E0602102E0A02100E0B6
:101A4000E02141F00801362000F068F84FF0D8405E
:101A5000598920F87E1F0021418041801988491E44
:101A60000A0A4280C9B241809989018000214180DF
:101A700041805988491E0A0A4280C9B2418010BD7E
:101A80005C0000200B4B10B59A88A2F51344413C32
:101A90000ED14FF0D8425C8922F87E4F040A548060
:101AA000C0B2508098891080080A5080C8B2508017
:101AB00010BD00005C00002070B50244521E94B2BC
:101AC000CA18104B521E95B29A88A2F51346413E91
:101AD00016D14FF0D8425E8922F87E6F060A5680F2
:101AE000C0B25080200A5080E0B2508098891080A7
:101AF000080A5080C8B25080280A5080E8B250804E
:101B000070BD00005C00002003484FF0D841008900
:101B1000A1F87E00704700005C0000204FF0D84222
:101B200022F87E0F5180704710B58EB01C21684698
:101B3000FEF780FB1C2107A8FEF77CFB1A484FF03C
:101B40002041102201601949416006218160002175
:101B5000C160C0E904128161C16113020162C0E980
:101B600009139302C0E90B134163816341640F20A1
:101B70003C230090CDE9010303AC112384E80E005F
:101B800009240691CDE907400AA8099480E80E00CF
:101B90000D9107AA69460448FFF758FB002801D0B9
:101BA000FEF7D1FD0EB010BD6C000020040100A0B6
:101BB0002DE9F04387B014216846FEF73BFB44480B
:101BC0000024016841F004010160016801F0040192
:101BD0000591016841F020010160016801F02001D8
:101BE0000591016841F080010160016801F0800108
:101BF0000591016841F002010160016801F00201F4
:101C00000591016841F010010160016801F01001C7
:101C10000591016841F008010160016801F00801C7
:101C20000591016841F001010160016801F00101C5
:101C30000591016841F0400101600068254F00F006
:101C400040004FF400550590002229463846FEF723
:101C5000B8FFDFF8849000224FF460614846FEF739
:101C6000B0FFDFF8788048F2010600223146404696
:101C7000FEF7A7FF00950125CDE9015469463846D6
:101C80000394FEF799FE4FF4C060CDE90005CDE95D
:101C9000025469464846FEF78FFE0096CDE901548E
:101CA000694640460394FEF787FE06208DE8310022
:101CB00069464046FEF780FEE8020090CDE90154F7
:101CC000694648460394FEF777FE07B0BDE8F08307
:101CD0003038024000080240001402400004024074
:101CE00010B50E4C0C480C2120604FF4E1306060C0
:101CF0000020A060E060C4E90401A061E06120462A
:101D0000FFF71EFC08B1FEF71EFD2068C16841F018
:101D10002001C16010BD000000100140C001002082
:101D2000FEE7FEE770477047FEF756BF30B593B049
:101D300030216846FEF77EFA14210CA8FEF77AFAE5
:101D40001E480025016841F080510160006800F0E4
:101D5000805011901A48016841F480410160006888
:101D6000022400F4804011900120009000040190B2
:101D70008001CDE90640082008904FF4A870CDE915
:101D8000090404200B906846FFF7AAF808B172B660
:101D9000FEE70CA90F2081E831004FF4A0500F900E
:101DA0004FF48050109005210CA8FEF7AFFF0028DB
:101DB00001D072B6FEE713B030BD000040380240DB
:101DC000007000400248016841F4700101607047F2
:101DD00088ED00E070B50649A1F10A000C46054601
:101DE00000F09AF82146284600F096F8012070BDD0
:101DF0001A0000202DE9F04700252B4E07462C46FF
:101E00002A4601213046FEF7DCFE0022F114274865
:101E1000FEF7D7FEDFF898904FF4005800224146B5
:101E20004846FEF7CEFE384600F020F90120FEF7C6
:101E30005DFD002201213046FEF7C3FE0120FEF7C2
:101E400055FD012211463046FEF7BBFE0120FEF78C
:101E50004DFD002201213046FEF7B3FE4FF6FF771D
:101E600007EA4404002201213046FEF7AAFE0120C1
:101E7000FEF73CFD012211463046FEF7A2FE04218A
:101E80003046FEF791FE08B1641CA4B26D1CEDB2A1
:101E9000102DE5D32409012241464846FEF791FE64
:101EA0002046BDE8F0870000000402400014024014
:101EB00000080240FEB5064600256C463046FFF796
:101EC00099FF24F815006D1CADB2052DF6D3002046
:101ED000431C99B20CE000BF34F8102034F81150C4
:101EE000AA4203D924F8105024F81120491C89B2C1
:101EF0000529F1D398B20428EAD300215FF001004C
:101F000034F81020401C114480B289B20428F7D361
:101F10000320B1FBF0F0FEBD2DE9F041074C064671
:101F20000D462078FFF7C6FF07466078FFF7C2FF2F
:101F3000378028800120BDE8F081000000000020EB
:101F40007FB50C460546694602A8FFF7E5FF002865
:101F50002FD001A903A8FFF7DFFF002829D0BDF883
:101F60000C30BDF80820934203D803F132008242BE
:101F700005D39A421FD802F1320083421BD2BDF82A
:101F80000410BDF80000814203D801F13206B042CE
:101F900004D388420FD8323081420CD2D018400886
:101FA0002880BDF80000BDF80410084440082080D7
:101FB000012004B070BD0020FBE7000070B50546AD
:101FC00002212848FEF7F0FD274C40B194F820008C
:101FD00001063BD520F0800084F820003DE0224837
:101FE00000F116010C3015B1FFF7AAFF22E0FFF750
:101FF000A7FFF8B1A089D4ED0B0A00EE100A94ED0A
:10200000091AB8EE400A41EE000ABCEEE00A10EEF2
:10201000100AA081E08A94ED0C0A00EE900A94ED7B
:102020000A1AF8EE600A01EE200ABCEEC00A10EEB1
:10203000100AE08294F8200000060ED4C02084F834
:102040002000A089A082E08AE08306E00020A08230
:10205000E0834FF6FF70A081E08294F8200000F04A
:10206000800070BD00040240040000202DE9F04112
:10207000DFF84880124E054600244FF4006728061A
:1020800001D5012200E0002239464046FEF799FDC5
:102090006806050E002201213046FEF792FD012060
:1020A000FEF724FC012211463046FEF78AFD641C2F
:1020B000E4B2082CE3D3BDE8F08100000014024034
:1020C0000004024010B5806B0021C185C184FFF778
:1020D00002F910BD01680C3151E8002F22F4907212
:1020E00041E80023002BF5D10168143151E8002F9D
:1020F00022F0010241E80023002BF5D1016B0129F8
:1021000009D101680C3151E8002F22F0100241E89A
:102110000023002BF5D1202180F83E10002101631F
:10212000704708B590F83E10222901D0022008BD62
:1021300082684FF480539A4201D1016921B1816ACA
:102140009A421BD04AB10AE00268816A5268C2F31F
:1021500008020A80816A891C08E0026972B102687B
:10216000526802F07F020A70816A491C8162C18D47
:10217000491E0904090CC18503D019E002685268A0
:10218000F1E70168CA6822F02002CA600168CA68E3
:1021900022F48072CA6001684A6922F001024A6131
:1021A000202180F83E10016B012903D0FFF74EFA81
:1021B000002008BD0021016301680C3151E8002FA7
:1021C00022F0100241E80023002BF5D101680A68D3
:1021D000D20602D50A6849680091818DFFF77AF826
:1021E000E6E7000070B5044600680169E26821F482
:1021F0004051114301612169A068E26908436169A6
:10220000114308432168CA6849F20C639A430243A8
:10221000CA6020684169A26921F44071114341619B
:1022200031492068884202D03049884202D1FEF705
:1022300017FE01E0FEF704FEE26900231921642580
:102240003226B2F5004F626828D0A0FB0101930F3F
:102250009200FDF7B7FF0146B0FBF5F06FF01802F2
:10226000504301EB800006EB0010B0FBF5F000F0EE
:10227000F002B1FBF5F002EB0012B1FBF5F06FF0EC
:102280001803584301EB800006EB0010B0FBF5F09B
:1022900000F00F0021681044886070BDA0FB0101B0
:1022A00092185B41FDF78EFF0146B0FBF5F002018D
:1022B000B1FBF5F06FF01803584301EB800006EB1B
:1022C000C000B0FBF5F000F0F80002EB4002B1FBFB
:1022D000F5F0584301EB800006EBC000B0FBF5F0D1
:1022E00000F00700D6E70000001001400014014094
:1022F00081628285C28500210164222280F83E200D
:1023000080F83C10016921B10168CA6842F480720A
:10231000CA6001684A6942F001024A610068C16806
:1023200041F02001C160002070472DE9F04198463E
:1023300017460E460446069D27E0681C25D02DB1A1
:10234000FEF744FCA0EB0800A8421ED920680C3020
:1023500050E8001F21F4D07140E80012002AF5D1A6
:102360002068143050E8001F21F0010140E80012FD
:10237000002AF5D1202084F83D0084F83E0000209A
:1023800084F83C000320BDE8F0812068006836EA4C
:10239000000004D00020B842CFD00020F3E7012095
:1023A000F9E700000148FEF797BF0000C0010020D8
:1023B000FEE700000FB4054B10B503A9044A0298CC
:1023C00000F0EAF810BC5DF814FB0000A12C000836
:1023D000580000200907090E002804DB00F1E02066
:1023E00080F80014704700F00F0000F1E02080F842
:1023F000141D704702E008C8121F08C1002AFAD154
:1024000070477047002001E001C1121F002AFBD174
:10241000704700002DE9FF5F82B00021DDE9043044
:10242000020DDDF840B0034318D044F61050A2F27C
:10243000FF3242431514119801281FD0A5EB0B0061
:10244000401C5FEA000A4FF000064E4FDFF838915B
:10245000B046504615D5CAF1000413E01198012486
:102460004AA3012801D16FEA0B010298119AC0E931
:102470000031C0E9024206B0BDE8F09FCBF1000098
:10248000DFE704460021404A491842EB0450CDE9F9
:10249000001012E0E00707D032463B46404649466E
:1024A000FDF7BDFF8046894632463B461046194639
:1024B000FDF7B5FF06460F466410002CEAD1DDE9B2
:1024C0000401DDE90023BAF1000F06DAFDF7A7FFEA
:1024D00042464B46FDF7A3FF05E0FEF712F84246E1
:1024E0004B46FEF70EF804460E460022284BFEF738
:1024F0008FF803D84FF0FF30014607E00022254B4C
:1025000020463146FDF7E4FEFEF76AF8102409E0A4
:10251000002C0ADB0A220023FDF754FE039B303215
:102520001A55641E50EA0102F2D1641C039AC4F1E8
:1025300011031444119A012A03D0012208430DD13A
:102540000AE0084304D000204FF0110B119072E70D
:10255000A3EB0B056D1E0DE05B4504DD4FF00002A3
:1025600005F1010504E003DA4FF00002A5F10105D1
:10257000002AECD002981199C0E90231C0E9004567
:1025800079E70000000014400000F03F3000000038
:102590000000F0430000E03F2DE9FF4F95B09A4660
:1025A000884606460025EEE1252877D100242746F7
:1025B000F94A0121039400E0044316F8013F203B4F
:1025C00001FA03F01042F7D130782A2811D06FF0C9
:1025D0002F033078A0F13002092A16D8039A44F06C
:1025E000020402EB820203EB42021044761C0390C9
:1025F000EFE758F8042B0392002A03DA504244F420
:102600000054039044F00204761C30782E2816D132
:1026100016F8010F44F004042A280DD06FF02F02A1
:102620003078A0F13003092B09D807EB870302EBC0
:102630004303C718761CF3E758F8047B761C307800
:102640006C280FD006DC4C2817D068280DD06A28DB
:1026500014D104E0742810D07A280FD10DE044F48E
:1026600000140AE044F4801401E044F44014727849
:10267000824202D104F58014761C761C30786628DC
:102680000BD013DC582877D009DC002875D04528FA
:10269000F6D04628F4D047281AD193E118E06328F1
:1026A00035D0642879D0652812D18BE1702873D099
:1026B00008DC6728F1D069286FD06E280DD06F280C
:1026C00006D1ACE073282CD0752874D0782853D06C
:1026D0005246179990476D1C54E1C4F302500228EA
:1026E00009D003280DD0D8F8001004280DD00D60B3
:1026F00008F1040846E1D8F80010EA17C1E90052D1
:10270000F6E7D8F800100D80F2E70D70F0E718F842
:10271000041B8DF8001000208DF80100EB4601200D
:1027200003E058F804BB4FF0FF3061074FF00001A1
:1027300002D40DE009F101018946B9420FDA814561
:10274000F8DB1BF809100029F4D108E009F10101B8
:1027500089468142FADB1BF809100029F6D103985B
:102760005346A0EB090721463846179A00F080FA35
:10277000284400EB090507E044E008E10DE01BF800
:10278000010B524617999047B9F10109F7D2534608
:1027900021463846179AF2E039E00A21C4F3025282
:1027A0004FF0000B0091022A06D058F8040BC11715
:1027B000032A09D00AE023E008F1070020F007020D
:1027C000F2E80201904605E000B2C117042A01D1E7
:1027D00040B2C117002906DA0A460021404261EBE7
:1027E00002012D2202E0220504D52B228DF80420BF
:1027F000012203E0E20701D02022F7E7914657E0EB
:102800000A2100E010214FF0000B00910BE0102195
:102810004FF0000B44F004040827009103E0082067
:102820004FF0000B0090C4F30252022A05D058F872
:10283000040B0021032A08D008E008F1070020F06B
:102840000702F2E80201904603E080B2042A00D1B8
:10285000C0B24FF0000922072AD53278702A07D07B
:10286000DDF800C08CF0100C5CEA0B0C05D00EE01B
:1028700040228DF80420012208E050EA010306D02E
:1028800030238DF804308DF8052002229146009BFC
:1028900083F0080353EA0B030AD150EA010201D185
:1028A000620705D530228DF804204FF001097F1E04
:1028B0003278582A04D039A20C920CAA02920BE06A
:1028C0003BA2F9E75B46009AFDF77CFC0C9B9B5C06
:1028D000029A521E0292137050EA0102F2D102983B
:1028E00004A9081A00F1200B600702D524F48034F3
:1028F00000E001275F4502DDA7EB0B0000E00020B0
:1029000000EB0B01009003984944401A0390E00348
:1029100006D453462146179A039800F0A9F90544B6
:10292000002706E001A85246C05D179990476D1C2C
:102930007F1C4F45F6DBE0030CD553462146179A22
:10294000039800F095F9054404E0302052461799A9
:1029500090476D1C0099481E00900029F5DC08E0A6
:102960000298029952460078491C029117999047A3
:102970006D1CBBF10001ABF1010BF1DC5BE100F080
:1029800065F90544761C307800287FF40DAE19B047
:102990002846BDE8F08F00000928010030313233AD
:1029A000343536373839616263646566000000008B
:1029B0003031323334353637383941424344454675
:1029C00000000000600700D4062708F1070020F08F
:1029D0000700F0E80223804603F0004C5FEA0C0099
:1029E00001D097A009E0200501D596A005E0E007F9
:1029F00001D095A001E0AFF24C001390307823F0A5
:102A0000004365280CD006DC452809D046281DD097
:102A100047287FD13BE0662818D067287AD136E076
:102A20000021112F01DB112000E0781CCDE900010D
:102A300004A90CA8FFF7EEFCDDE90D010C9A4FF09C
:102A4000000B07F10109109200914EE04FF0004099
:102A50000097CDE9011004A90CA8FFF7DBFCDDE924
:102A60000D020C9B0F994FF0000B914610930092B2
:102A700011B9791C00EB0109B7EB090003D4C0F1CF
:102A8000FF3B07F10109A9EB0700019042E0012F8C
:102A900000DA01270021112F01DD112000E0384666
:102AA000CDE9000104A90CA8FFF7B4FCDDE90D0194
:102AB0000C9A00914FF0000BB946109221070FD4E9
:102AC000009A4A4503DA914601E0A9F10109B9F1FA
:102AD000010F05DD109AA9F10101515C3029F4D0F4
:102AE000B84202DA10F1040F03DA0121CDE9011036
:102AF00010E0002803DC8344A9EB000102E0411C44
:102B0000494500DD8946A0EB0B00401C01904FF0C9
:102B100000400290200705D40198484502DB4FF0A1
:102B2000FF30019000208DF84B0002980DF14B070B
:102B3000B0F1004F25D002200C902B200D90029870
:102B400000280CDA404202902D200D9007E00A2167
:102B50000298FDF788FB3031029007F8011D0C99AF
:102B6000481E0C900029F2DC02980028EFD1791E53
:102B70000D980870307800F0200040F0450007F80C
:102B8000020D11A8C01BC01D02901398007800B15F
:102B9000012000EB0901019801EBE071029801446A
:102BA0000398401A401E0390E00306D45346214682
:102BB000179A039800F05CF805441398007818B150
:102BC0005246179990476D1CE00323D55346214682
:102BD000179A039800F04CF805441BE0BBF1000F76
:102BE00007DB0098584504DD1098179910F80B0082
:102BF00001E0179930205246904701980BF1010BE4
:102C0000401E05F10105019004D12E20524617996E
:102C100090476D1CB9F10001A9F10109DEDC05E066
:102C200017F8010B5246179990476D1C0299481EE0
:102C300002900029F4DC53462146179A03989EE639
:102C40002D0000002B000000200000002DE9F041C5
:102C5000044600251E461746880404D405E039467C
:102C60002020B0476D1C641EF9D52846BDE8F081D0
:102C70002DE9F041044600251E469046C80301D5C3
:102C8000302700E02027880404D505E04146384677
:102C9000B0476D1C641EF9D52846BDE8F0810000E0
:102CA00013B54FF6FF73012269460548FEF7F0FCA5
:102CB000034800680168C9434906FBD400981CBD5D
:102CC000C0010020FDF790FFFFF730F8FEF770FF1E
:102CD000FEF72AFFFFF704F8FEF78CFD01221E49DC
:102CE0001E48FEF79DFC1E4DDFF878801E4E1A4CE4
:102CF00005F1160A05F10C0900274FF4007B514637
:102D00004846FFF709F9EA8AA98918A0FFF752FB9C
:102D100094F802010128F2D184F8027119A1601C13
:102D2000FDF793FA80B9601CFFF744FB98F8001098
:102D300016A0FFF73FFB59463046FDF73AFF4FF428
:102D400080613046FDF735FF14A0FFF733FBFF210C
:102D5000601CFDF76FFAD2E7BC000020C001002024
:102D60000400002044000020001402407820697311
:102D700020307825582C7920697320307825580D1B
:102D80000A0000004C45440D0000000074656D70A1
:102D90002069732025640D0A00000000554152543B
:102DA0005F464C41470D0A00000000000000000093
:102DB00001020304060708090000000001020304E1
:102DC000E02D0008000000205C000000F423000853
:102DD0003C2E00085C000020AC1100000424000818
:102DE000D0900000D51D0008BD1F000800000000A5
:102DF00000000000000000000000000000000000D3
:102E000000000000000000000000000000000000C2
:102E100000000000000000000000000000000000B2
:102E2000000000000200000001000000100000008F
:0C2E3000000000000024F400000000007E
:040000050800018965
:00000001FF
